:020000040800F2
:10000000C8040020D50000081D1400084113000892
:1000100000000000000000000000000000000000E0
:10002000000000000000000000000000671400084D
:1000300000000000000000006514000869140008BA
:100040000501000805010008050100080501000878
:1000500005010008DD02000805010008050100088F
:100060000000000005010008050100080501000866
:100070000501000805010008000000000501000856
:100080000000000000000000000000000000000070
:100090000501000800000000000000000501000844
:1000A0000000000005010008000000000000000042
:1000B0000501000805010008000000000000000024
:1000C0000348854600F05AF800480047F11600083A
:1000D000C80400200C4880F308880C480168090E09
:1000E0000B4A914205D10B480B4901600B480C4962
:1000F00001600C4880470C480047FEE7FEE7FEE73A
:10010000FEE7FEE7FEE70000C80400200400000050
:100110001F000000341002400100000000000140F8
:1001200000000000E1140008C100000830B50B46D3
:10013000014600202022012409E00D46D5409D42C1
:1001400005D31D469540491B254695404019154647
:10015000521E002DF1DC30BDD2B201E00270401C15
:10016000491EFBD270470022F6E710B513460A4637
:1001700004461946FFF7F0FF204610BD064C012546
:10018000064E05E0E36807CC2B430C3C984710343F
:10019000B442F7D3FFF798FF6C1800088C180008DA
:1001A00070B5044600688168490720D5816810262B
:1001B0004907002905DA8168890702D4816831433B
:1001C000816000F075FB05460DE000F071FB401BFF
:1001D0000A2808D9606D30436065A06D012108438D
:1001E000A065084670BD206880684007EDD40020F7
:1001F00070BD000038B50446064805490068FFF7A1
:1002000095FF604300E0401E00900028FBD138BD00
:1002100040420F001C000020F8B5044600688168C9
:100220008907890F012925D10168C90722D0816872
:10023000052211401025012601290FD181680222D3
:100240001143816021680320086000F031FB0746FC
:100250000CE000F02DFBC01B0A2807D9606D284375
:100260006065A06D3043A0650120F8BD20688068FE
:10027000C007EED10020F8BDF8B5044600688168DB
:100280008907890F012902D10168C90722D1816834
:10029000114A10261140012500290ED181682943F9
:1002A00081600120FFF7A6FF00F002FB07460CE08B
:1002B00000F0FEFAC01B0A2807D9606D3043606564
:1002C000A06D2843A0650120F8BD20680068C043E8
:1002D000C007EDD10020F8BD1700008010B5012047
:1002E00000F026FA0B484188002912D101880A4AF9
:1002F000032906D2094B1B88994202D21388002B8E
:1003000003D000210180118001E0491C018064219B
:10031000418010BD140000200000002006000020D5
:10032000F8B506460D464036317C01290DD0012135
:10033000317401688A68520709D5416D2022114342
:100340004165002030740120F8BD0220F8BD174B34
:100350006A68D80547109A42154C8A6A2B6812D0F1
:100360005B035B0B1A438A622968490305D5A168C0
:100370000143A1600A20FFF73DFF2868800312D5E2
:10038000A06838430EE05B035B0B9A438A622968DE
:10039000490302D5A1688143A1602868800302D582
:1003A000A068B843A06000203074F8BD01100000C0
:1003B000002701400068006C7047000070B5040021
:1003C00006D0606D264600254036002802D006E0A3
:1003D000012070BDA5653574204600F0D3F8606D2E
:1003E000C00603D421688868400705D5606D1021D8
:1003F000084360653574EBE7606DFF22013290437E
:1004000002221043606588688207920F5B48012AC8
:1004100002D10A68D2072BD1032362689B079A4254
:1004200005D05B429A4202D05B009A4209D10A6928
:10043000920092080A6121680A6963681A430A6196
:100440000CE00A69920092080A6181680F22920406
:100450009143816081686268114381602168CA6844
:1004600018239A43CA602168CA68A3681A43CA60FD
:10047000816801225206914381608168A28E5206F2
:100480001143816020688168C90004D48168012219
:100490001207114381602068C168394A1140C16068
:1004A0002069E168022825D0002001432046203041
:1004B0000278037B52035B001A431143226B114302
:1004C000A26992031143E269D20311432268D368FF
:1004D0001943D160616A0A46FF3AC23A05D0A26A5E
:1004E00011432268D3681943D16042780121012A5F
:1004F00002D00BE00420D8E70078002823D0606DFC
:10050000202210436065A06D0843A065E06B0128C0
:1005100020681FD00169C90703D001694908490053
:10052000016120684169C908C900416120684169C9
:10053000A26B11434161A565606D80088000401C7D
:100540006065002070BD2068C26801231B041A4347
:10055000C260DBE70269FF239B009A4302612068C7
:100560000269236CA66C1A43636C33431A4302611D
:10057000206802690A430261D3E7000000270140B6
:100580001902FEFF10B586B0044614216846FFF735
:10059000EAFD0E492068884216D10D48416B42158C
:1005A00011434163C16A01221143C162C06A6946B5
:1005B00010400590802000900320019000200290C0
:1005C0000520000700F0C0F806B010BD002401406F
:1005D00000100240F8B504464069254640350E46F5
:1005E00008280BD02068C068C00709D0606D2021A2
:1005F00008436065002028740120F8BD082700E04A
:100600000C2700F055F9009011E0701C0FD0002E5F
:1006100005D000F04DF90099401AB04207D9606D3D
:10062000042108436065002028740320F8BD206879
:1006300000683842E9D0606D0121490208436065D5
:100640002068C16809058A0F0C21002A1BD12022CD
:10065000125D002A17D10268120714D58268530769
:100660000122002B08DB43688B434360606D13025B
:1006700098431043606506E0606D20231843606571
:10068000A06D1043A065A069002801D12068016019
:100690000020F8BD70B5044621680020896849072C
:1006A00021D425464035297C01291CD001212974FB
:1006B000E169012904D02046FFF7DEFD002811D1B1
:1006C000616D0A4A1140FF22013211436165002128
:1006D000A165297422681C21116021688A6804239D
:1006E0001A438A6070BD022070BD0000FEF1FFFF5A
:1006F00070B5054604464035287C012807D0012600
:100700002E742046FFF74CFD002802D00CE002209A
:1007100070BD2046FFF780FD002805D1616DFF22E6
:1007200001329143314361650021297470BD7047E6
:1007300010B504494A69024202D04861FFF7F7FF49
:1007400010BD000000040140F8B50023012498E02A
:1007500027469F403A4070D04D68022D01D0122D9F
:1007600014D1DD08AD002D1800952D6A5E07AC464A
:10077000F50E0F26AE46AE406546B543AC460E6953
:100780007546AE4065462E43009D2E624D68012D94
:1007900005D0022D03D0112D01D0122D16D1856860
:1007A0000326AC465D00AE46AE406546B543AC465A
:1007B000CE687546AE4065462E43866046680D7924
:1007C000BE43ED06ED0F9D403543456006685F0072
:1007D0000325BD40AE46AE430D79B446AE07B60F15
:1007E000BE4065462E430660C6687546AE438D68BA
:1007F000BD403543C5604D68ED0041D5244D6E6B5D
:1008000026436E639E08234DB6007519AC46AD684D
:100810009E07360F0F27B740BD4305273F07B84255
:1008200001D100270BE01C4FB84201D1012706E09F
:100830001A4FB84202D1022701E021E00627B74053
:100840002F436546AF60164D2E684F689643FF03F1
:1008500000D516432E606E684F689643BF0300D5DF
:1008600016436E60AE684F689643FF0200D516438C
:10087000AE60EE684F689643BF0200D51643EE6047
:100880005B1C0A681546DD4000D061E7F8BD00003A
:100890000010024000000140000400500008005019
:1008A000000401400069084000D0012070470000AA
:1008B00001480068704700001800002002480168E5
:1008C000491C0160704700001800002010B508485E
:1008D00000240168402211430160204600F00AF81C
:1008E000002801D0012401E000F01CF8204610BDD2
:1008F0000020024070B5054609487D210024C9004A
:100900000068FFF713FC00F085FB002801D00124EC
:1009100004E000222946501E00F024F8204670BD55
:100920001C0000201CB5002001900848416B0122EA
:1009300011434163816B020411438163C020009025
:10094000684600F023F800F055F81CBD0010024086
:10095000C106C90E012088400149086070470000A7
:1009600000E100E010B500F05BFD10BD0248016839
:100970000215114301607047007000400248016891
:10098000421511430160704700700040174A11681A
:10099000E023994303681943116015494B6801220C
:1009A000120493434B600B6893430B60CB689343F3
:1009B000CB608B6893438B604368DB0302D50B6885
:1009C00013430B6043689B0302D54B6813434B6092
:1009D0000379DB0702D08B6813438B6000798007B3
:1009E00002D5C8681043C86070470000007000401E
:1009F0000004014002480168102211430160704761
:100A000000700040F8B50E4605007DD053480068E0
:100A1000C007C00FB0420AD25048016849084900D7
:100A2000314301600068C007C00FB04271D128781F
:100A30004B4C800705D5E068F0218843A96808433E
:100A4000E0602878C00752D06868022817D00328D1
:100A500018D02168012818D08905002959DAE168E1
:100A6000890889000143E160FFF722FF69680746B2
:100A7000022912D003291CD0012926D033E0216895
:100A80008903EAE721688901E7E74907E5E7FFF716
:100A90000FFFC11B3348814223D8E0680007800F55
:100AA0000228F4D123E0FFF703FFC11B2D48814248
:100AB00017D8E0680007800F0328F4D117E0FFF78C
:100AC000F7FEC11B274881420BD8E0680007800F62
:100AD0000128F4D10BE0FFF7EBFEC11B2148814256
:100AE00001D90320F8BDE0680007800FF3D11B484F
:100AF0000168C907C90FB1420DD901684908490009
:100B000031430160006800E003E0C007C00FB0425D
:100B100001D00120F8BD2878400706D5E0680721FC
:100B200009028843E9680843E0602878000707D590
:100B3000E0680721C90288432969C9000843E060C9
:100B400000F016F8E168084A0906090F515CC84030
:100B5000064908600020FFF7CDFEF8BD00200240E6
:100B60000010024088130000501800081C000020EC
:100B700010B5184AD1680C20084004280BD008286A
:100B800010D00C2810D050680004410F0120C00381
:100B9000491C884010BD1068C00601D50E4810BD24
:100BA0000E4810BD0E4810BD88020E4B000F185C99
:100BB0000902D368890F491CDB0301D5084A05E007
:100BC0001268D20601D5044A00E0044A5043FFF7F8
:100BD000ADFA10BD0010024000093D000024F400F1
:100BE00000127A0060180008FEB505007ED0FE4CA9
:100BF000E7680C20E66807400120000406402878DA
:100C0000C00747D0082F05D00C2F0AD101200004BF
:100C1000864206D1206880033CD568680028E5D06C
:100C200038E0012069680004814203D12168014352
:100C3000216011E0052301221B04920499422168DE
:100C400002D111432160F1E7814321602168014015
:100C50000091206890432060686800280DD0FFF75D
:100C600027FE009005E0FFF723FE0099401A642854
:100C70007ED820688003F6D50CE0FFF719FE0090BF
:100C800005E0FFF715FE0099401A6428F0D82068A7
:100C90008003F6D4287880075CD5E868810604D5FF
:100CA000226820210A43226088430923042F0DD0A3
:100CB0000C2F01D1002E09D000283BD02168994388
:100CC00001432160FFF7F4FD064627E0216849074C
:100CD00001D500288AD061681F22120291432A6937
:100CE0001202114361602168994300E08EE10143E3
:100CF0002160FFF73DFFE16809060A0FBB49895CE7
:100D0000C840BB4908600020FFF7F4FD002873D1FC
:100D100020E0FFF7CDFD801B0228A9D820684007FE
:100D2000F7D560681F210902884329690902084331
:100D300060600FE02068400840002060FFF7B8FDC9
:100D4000064604E0FFF7B4FD801B022890D8206817
:100D50004007F7D42878C00660D5002F0DD0A869C9
:100D600000284AD02068FF2101310843206000E0BC
:100D7000C4E0FFF79DFD06462CE02068800502D503
:100D8000A8690028A6D06068072149038843296A1A
:100D9000084360606068297F0002000A0906084372
:100DA0006060286A410B0120C003491C8840E1684B
:100DB00009060A0F8D49895CC8408D4908600020EA
:100DC000FFF798FD002817D128E0FFF771FD801B81
:100DD0000228A2D820688005F7D56068072149035A
:100DE0008843296A084360606068297F0002000A1E
:100DF00009060843606011E0E1E02168FF2001304E
:100E000081432160FFF754FD064604E0FFF750FDE3
:100E1000801B022872D820688005F7D42878754E88
:100E2000000724D568690028306910D001210843E3
:100E30003061FFF73DFD009005E0FFF739FD0099B7
:100E4000401A02285AD830698007F6D50FE04008CA
:100E500040003061FFF72CFD009005E0FFF728FD12
:100E60000099401A022849D830698007F6D42878BA
:100E7000400765D500200290A06BC00006D4A06B8F
:100E8000012109070843A063012002905A48016824
:100E9000C90511D40168821511430160FFF708FDEF
:100EA000009005E0FFF704FD0099401A642825D85A
:100EB00051480068C005F5D5FF20AA68013082427C
:100EC00003D131690143316111E001218902002A16
:100ED00007D005231B029A4203D132690A433261CB
:100EE000EFE7326982433261306988433061A86834
:100EF00000280FD0FFF7DCFC009007E05EE0FFF772
:100F0000D7FC0099411A3D48814257D83069800585
:100F1000F5D50DE0FFF7CCFC009006E0FFF7C8FC2C
:100F20000099411A3548814248D830698005F5D486
:100F30000298002804D0A16B012000078143A1631F
:100F4000686A002864D00C2F3ED00126360602289D
:100F5000206805D0B0432060FFF7AAFC05462FE0CB
:100F6000B0432060FFF7A4FC074604E0FFF7A0FCB5
:100F7000C01B022822D820688001F7D4E96AA86A39
:100F8000E2680843296BFD231B049A43114308437D
:100F9000E060206830432060FFF78AFC054604E0EB
:100FA000FFF786FC401B022808D820688001F7D58F
:100FB0002EE0FFF77DFC401B022801D90320FEBD77
:100FC00020688001F5D423E00128F8D0E0680121F1
:100FD0000904AA6A0140914218D10F218904EA6AE2
:100FE0000140914212D10BE000100240501800085D
:100FF0001C000020401002400070004088130000D8
:10100000032189050840296B884201D00120FEBDDB
:101010000020FEBD094910B5401E884201D90120BB
:1010200010BD074C60610321081F00F0F9F9002092
:10103000A06107202061002010BD0000FFFFFF001D
:1010400000E000E0F0B502462032137E012B15D0FF
:10105000012717760223537605686C68AB68702603
:10106000B4430E68496826438024A34319436E6045
:1010700000688160577600201076F0BD0220F0BD38
:1010800070B5040005D025462035687E002802D0C2
:1010900006E0012070BD00202876204600F00AF806
:1010A00002206876211D206800F044FA012068764D
:1010B000002070BD006801218907884204D10348DF
:1010C000816B0122114381637047000000100240D0
:1010D000F8B5054604462035287E012817D001269C
:1010E0002E7602206876226890687727FF23B8431F
:1010F0001B02984390600A68502A31D00EDC202AE7
:101100004BD006DC002A48D0102A3AD145E0022014
:10111000F8BD302A41D0402A33D136E0602A27D0AA
:10112000702A12D001200003121A2AD0824228D13C
:10113000CB684A688968206800F02DFA20688168C9
:1011400001229203114381601BE0CB684A688968E1
:10115000206800F020FA216888683843886010E031
:10116000CA684968206800F090FA5021206806E0BB
:10117000CA684968206800F099FA6021206800F088
:1011800015FA6E7600202876F8BDCA68496820688E
:1011900000F07BFA40212068F1E711462068EEE775
:1011A00010B586B0044614216846FEF7DCFF012125
:1011B00020688907884213D10A48C16A0122114375
:1011C000C162C06A02210091104005900020029087
:1011D000039001910491052069460007FFF7B4FAD6
:1011E00006B010BD00100240F8B506460446203691
:1011F000307E0D4601280DD0012030760220707619
:101200000427002A08D0042A16D0082A2AD00C2A3B
:101210004DD137E00220F8BD206800F0CFF92068FA
:10122000816908221143816120688169B943816124
:1012300020688169EA6812E0206800F0D7F9206828
:1012400082690121C9020A43826120688169012201
:1012500092029143816120688169EA681202114318
:10126000816124E0206800F0DAF92068C269082171
:101270000A43C2612068C169B943C1612068C1697C
:10128000EA6812E0206800F0E5F92068C1690122EF
:10129000D2021143C1612068C269012189028A43D7
:1012A000C2612068C169EA6812021143C16101206C
:1012B000707600203076F8BD70B5040005D0254664
:1012C0002035687E002802D006E0012070BD002095
:1012D0002876204600F00AF802206876211D206852
:1012E00000F028F901206876002070BD704710B525
:1012F00004460068012200F041F92068816849072E
:10130000490F062903D00168012211430160002022
:1013100010BD000010B504460068002200F02EF950
:101320002068016A054A114203D101684908490051
:101330000160012020346076002010BD11110000F2
:10134000FEE700001CB50021144800910191C16323
:10135000114A4160026081600322826301220261BE
:101360000246C16020321170FF235170C2334362C4
:101370008162117301638161042241634261C16131
:10138000FFF71CF806480090012000030190694611
:101390000248FEF7C5FF1CBD0024014030000020BC
:1013A0008000001C10B58AB00024049405940694B3
:1013B0000794089401211848099400940194029418
:1013C0008907039401600121846041607D210461EB
:1013D000C9004461C160FFF753FE0120000304907F
:1013E00004A90D48FFF774FE0B48FFF765FF08944A
:1013F00008A909480994FFF725FE60200090019490
:1014000002940422694603940348FFF7EDFE024864
:10141000FFF7C6FE0AB010BD8C0000207047000028
:101420008307FF22DB0E9A408907090E99400028A6
:101430000BDA0007000F0838830808489B001818CB
:10144000C36993430B43C3617047830804489B00FF
:101450001B181868904308431860704700ED00E0BF
:1014600000E400E07047704710B504494888002840
:1014700001D0401E4880FFF721FA10BD1400002063
:1014800010B592B034216846FEF76DFE14210DA808
:10149000FEF769FE114801680322D2029143C2148B
:1014A00089180160122000900120039006901021FD
:1014B0000024400304910890079409946846FFF7BC
:1014C00093FB0F200D900E940F9410940021119413
:1014D0000DA8FFF797FA12B010BD00000070004091
:1014E00010480168821511430160C1680E4A11401D
:1014F000C16001680D4A11400160816849084900D6
:10150000816001680122920491430160C168FD225B
:1015100012049143C160002101610549C003886044
:1015200070470000001002400C40FF88F6FFF6FEF6
:1015300000ED00E030B5026801239B070E4C984295
:1015400001D0A04203D17025AA434D682A43984296
:1015500001D0A04204D103231B029A43CB681A4353
:1015600080239A430B691A4302608A68C262096841
:1015700081620121416130BD0008014010B5CB06F8
:10158000DB0E0121046A99408C430462016A9A408F
:101590001143016210BD30B58468FF252D021B0286
:1015A0001343AC430B432343836030BD82687023F5
:1015B0009A430A4307210A438260704730B5026AA2
:1015C000520852000262026A456883697024A3438C
:1015D0009C080B68A40023430224A2438C68456046
:1015E0001443836149684163046230BD30B5026AC7
:1015F00010239A430262036A4568826973242402B5
:10160000A2430C6824021443202293438A68456055
:1016100012011A43846149688163026230BD30B5AA
:10162000026AFF2301339A430262026A4568C36972
:101630007024A3439C080B68A40023430124640284
:10164000A2438C68456024021443C3614968C163A6
:10165000046230BD30B5026A01231B039A43026263
:10166000036A4568C26973242402A2430C682402F9
:1016700014430122520393438A68456012031A43BC
:10168000C46149680164026230BD30B5036A046A0E
:101690006408640004628469F025AC4312012243AB
:1016A0000A24A3430B438261036230BD30B5036A51
:1016B0001024A34303628469036A0F252D031203D8
:1016C000AC432243A024A343090119438261016270
:1016D00030BD02E008C8121F08C1002AFAD17047C5
:1016E0007047002001E001C1121F002AFBD17047A2
:1016F00086B0FFF7EBF8FFF7C3FE14216846FEF74C
:1017000032FD4D49CA6A01200243CA62C96A0025F6
:1017100001400591009049480190052069460295D5
:101720000007FFF711F8002211460520FFF71AF90C
:101730000520FFF70DF9FFF735FEFFF703FE404CDC
:1017400040482580A5806021016021460C31098830
:10175000856041600421C1600A46014665806C30A5
:10176000FFF742FDFFF70AF9FFF700F91927364E98
:10177000BF01A56033481030FEF78CFF31487D2152
:10178000C9001030FEF726FF002804D12D48103084
:10179000FEF710FEA0602B481030FEF7A9FFA068EE
:1017A000B84201D9E5800CE02849884201D90120DE
:1017B00006E0AF21C900884201D9022000E00320E1
:1017C000E0803088E188884200D9318061883088A3
:1017D000814218D060801B4804216C30FFF79AFDCD
:1017E000308800280FD04100154804220C30415A9F
:1017F0001448416001466C30FFF7F6FC11480421A3
:101800006C30FFF774FD052001210007FFF74AF84F
:10181000002802D12088002801D0A580AAE7A0884E
:101820000121401C80B24902A0808842A2D9012037
:101830002080608035809DE700100240000011107C
:10184000000000202000002014000020DC05000023
:101850000000000000000000010203040607080960
:10186000030406080C101820300000008C18000833
:101870000000002020000000D2160008AC1800086C
:1018800020000020A8040000E2160008000000006C
:1018900000000000000000000000FA00F4015802FF
:0C18A0000000000000000000000020001C
:04000005080000C12E
:00000001FF
