:020000040800F2
:1000000000050020D500000859150008CD13000890
:1000100000000000000000000000000000000000E0
:10002000000000000000000000000000A315000810
:100030000000000000000000A1150008A515000840
:100040000501000805010008050100080501000878
:10005000050100080103000805010008050100086A
:100060000000000005010008050100080501000866
:100070000501000805010008000000000501000856
:100080000000000000000000000000000000000070
:100090000501000800000000000000000501000844
:1000A0000000000005010008000000000000000042
:1000B0000501000805010008000000000000000024
:1000C0000348854600F06CF80048004725180008F2
:1000D000000500200C4880F308880C480168090ED0
:1000E0000B4A914205D10B480B4901600B480C4962
:1000F00001600C4880470C480047FEE7FEE7FEE73A
:10010000FEE7FEE7FEE70000000500200400000017
:100110001F000000341002400100000000000140F8
:100120000000000015160008C100000830B50B469D
:10013000014600202022012409E00D46D5409D42C1
:1001400005D31D469540491B254695404019154647
:10015000521E002DF1DC30BD03460B439B0703D03C
:1001600009E008C9121F08C0042AFAD203E00B787C
:100170000370401C491C521EF9D27047D2B201E0F4
:100180000270401C491EFBD270470022F6E710B5F2
:1001900013460A4604461946FFF7F0FF204610BDF5
:1001A000064C0125064E05E0E36807CC2B430C3CCA
:1001B00098471034B442F7D3FFF786FFD01A0008EF
:1001C000F01A000870B5044600688168490720D518
:1001D000816810264907002905DA8168890702D459
:1001E00081683143816000F081FB05460DE000F03D
:1001F0007DFB401B0A2808D9606D30436065A06D07
:1002000001210843A065084670BD2068806840074A
:10021000EDD4002070BD000038B5044606480549FD
:100220000068FFF783FF604300E0401E0090002855
:10023000FBD138BD40420F003C000020F8B5044619
:10024000006881688907890F012925D10168C907DC
:1002500022D08168052211401025012601290FD1E5
:10026000816802221143816021680320086000F048
:100270003DFB07460CE000F039FBC01B0A2807D9FC
:10028000606D28436065A06D3043A0650120F8BD16
:1002900020688068C007EED10020F8BDF8B504469C
:1002A000006881688907890F012902D10168C9079F
:1002B00022D18168114A10261140012500290ED152
:1002C0008168294381600120FFF7A6FF00F00EFB43
:1002D00007460CE000F00AFBC01B0A2807D9606D36
:1002E00030436065A06D2843A0650120F8BD2068FB
:1002F0000068C043C007EDD10020F8BD17000080A2
:1003000010B5012000F02CFA0D484188002915D1C4
:100310000C4A018813880C4A994206D20B4B1B8861
:10032000994202D21388002B04D0002101800221BF
:10033000118001E0491C01806421418010BD000052
:1003400034000020000000200A00002008000020E7
:10035000F8B506460D464036317C01290DD0012105
:10036000317401688A68520709D5416D2022114312
:100370004165002030740120F8BD0220F8BD174B04
:100380006A68D80547109A42154C8A6A2B6812D0C1
:100390005B035B0B1A438A622968490305D5A16890
:1003A0000143A1600A20FFF737FF2868800312D5B8
:1003B000A06838430EE05B035B0B9A438A622968AE
:1003C000490302D5A1688143A1602868800302D552
:1003D000A068B843A06000203074F8BD0110000090
:1003E000002701400068006C7047000070B50400F1
:1003F00006D0606D264600254036002802D006E073
:10040000012070BDA5653574204600F0D3F8606DFD
:10041000C00603D421688868400705D5606D1021A7
:10042000084360653574EBE7606DFF22013290434D
:1004300002221043606588688207920F5B48012A98
:1004400002D10A68D2072BD1032362689B079A4224
:1004500005D05B429A4202D05B009A4209D10A69F8
:10046000920092080A6121680A6963681A430A6166
:100470000CE00A69920092080A6181680F229204D6
:100480009143816081686268114381602168CA6814
:1004900018239A43CA602168CA68A3681A43CA60CD
:1004A000816801225206914381608168A28E5206C2
:1004B0001143816020688168C90004D481680122E9
:1004C0001207114381602068C168394A1140C16038
:1004D0002069E168022825D0002001432046203011
:1004E0000278037B52035B001A431143226B1143D2
:1004F000A26992031143E269D20311432268D368CF
:100500001943D160616A0A46FF3AC23A05D0A26A2D
:1005100011432268D3681943D16042780121012A2E
:1005200002D00BE00420D8E70078002823D0606DCB
:10053000202210436065A06D0843A065E06B012890
:1005400020681FD00169C90703D001694908490023
:10055000016120684169C908C90041612068416999
:10056000A26B11434161A565606D80088000401C4D
:100570006065002070BD2068C26801231B041A4317
:10058000C260DBE70269FF239B009A430261206897
:100590000269236CA66C1A43636C33431A430261ED
:1005A000206802690A430261D3E700000027014086
:1005B0001902FEFF10B586B0044614216846FFF705
:1005C000E4FD0E492068884216D10D48416B421562
:1005D00011434163C16A01221143C162C06A694685
:1005E00010400590A0200090032001900020029070
:1005F0000520000700F0C0F806B010BD002401403F
:1006000000100240F8B504464069254640350E46C4
:1006100008280BD02068C068C00709D0606D202171
:1006200008436065002028740120F8BD082700E019
:100630000C2700F05BF9009011E0701C0FD0002E29
:1006400005D000F053F90099401AB04207D9606D07
:10065000042108436065002028740320F8BD206849
:1006600000683842E9D0606D0121490208436065A5
:100670002068C16809058A0F0C21002A1BD120229D
:10068000125D002A17D10268120714D58268530739
:100690000122002B08DB43688B434360606D13022B
:1006A00098431043606506E0606D20231843606541
:1006B000A06D1043A065A069002801D120680160E9
:1006C0000020F8BD70B504462168002089684907FC
:1006D00021D425464035297C01291CD001212974CB
:1006E000E169012904D02046FFF7D8FD002811D187
:1006F000616D0A4A1140FF220132114361650021F8
:10070000A165297422681C21116021688A6804236C
:100710001A438A6070BD022070BD0000FEF1FFFF29
:1007200070B5054604464035287C012807D00126CF
:100730002E742046FFF746FD002802D00CE0022070
:1007400070BD2046FFF77AFD002805D1616DFF22BC
:1007500001329143314361650021297470BD7047B6
:1007600010B504494A69024202D04861FFF7F7FF19
:1007700010BD000000040140F8B50023012498E0FA
:1007800027469F403A4070D04D68022D01D0122D6F
:1007900014D1DD08AD002D1800952D6A5E07AC461A
:1007A000F50E0F26AE46AE406546B543AC460E6923
:1007B0007546AE4065462E43009D2E624D68012D64
:1007C00005D0022D03D0112D01D0122D16D1856830
:1007D0000326AC465D00AE46AE406546B543AC462A
:1007E000CE687546AE4065462E43866046680D79F4
:1007F000BE43ED06ED0F9D403543456006685F0042
:100800000325BD40AE46AE430D79B446AE07B60FE4
:10081000BE4065462E430660C6687546AE438D6889
:10082000BD403543C5604D68ED0041D5244D6E6B2C
:1008300026436E639E08234DB6007519AC46AD681D
:100840009E07360F0F27B740BD4305273F07B84225
:1008500001D100270BE01C4FB84201D1012706E06F
:100860001A4FB84202D1022701E021E00627B74023
:100870002F436546AF60164D2E684F689643FF03C1
:1008800000D516432E606E684F689643BF0300D5AF
:1008900016436E60AE684F689643FF0200D516435C
:1008A000AE60EE684F689643BF0200D51643EE6017
:1008B0005B1C0A681546DD4000D061E7F8BD00000A
:1008C00000100240000001400004005000080050E9
:1008D000000401400069084000D001207047002A50
:1008E00001D0816170478162704700000148006853
:1008F000704700003800002002480168491C016070
:10090000704700003800002010B508480024016836
:10091000402211430160204600F00AF8002801D06F
:10092000012401E000F01CF8204610BD0020024028
:1009300070B5054609487D210024C9000068FFF70D
:10094000F5FB00F0ADFB002801D0012404E00022FB
:100950002946501E00F024F8204670BD3C000020BF
:100960001CB5002001900848416B012211434163EE
:10097000816B020411438163C0200090684600F03F
:1009800031F800F063F81CBD00100240C106C90E2A
:1009900001208840014908607047000000E100E044
:1009A00010B500F0DBFD10BDBFF34F8F04490348C5
:1009B000C860BFF34F8F00BFFDE700000400FA05D9
:1009C00000ED00E002480168021511430160704724
:1009D00000700040024801684215114301607047F1
:1009E00000700040174A1168E023994303681943D7
:1009F000116015494B680122120493434B600B6848
:100A000093430B60CB689343CB608B6893438B60BD
:100A10004368DB0302D50B6813430B6043689B03F9
:100A200002D54B6813434B600379DB0702D08B6818
:100A300013438B600079800702D5C8681043C860F3
:100A40007047000000700040000401400248016847
:100A50001022114301607047007000400A4B1A6871
:100A60009208920002431A60084803690422134363
:100A70000361012906D040BF20BF20BF0169914317
:100A80000161704730BFF9E70070004000ED00E001
:100A9000F8B50E4605007DD053480068C007C00F6A
:100AA000B0420AD250480168490849003143016008
:100AB0000068C007C00FB04271D128784B4C800746
:100AC00005D5E068F0218843A9680843E0602878EC
:100AD000C00752D06868022817D0032818D02168B0
:100AE000012818D08905002959DAE16889088900A8
:100AF0000143E160FFF7FAFE69680746022912D058
:100B000003291CD0012926D033E021688903EAE7B4
:100B100021688901E7E74907E5E7FFF7E7FEC11B21
:100B20003348814223D8E0680007800F0228F4D1BF
:100B300023E0FFF7DBFEC11B2D48814217D8E06898
:100B40000007800F0328F4D117E0FFF7CFFEC11B89
:100B5000274881420BD8E0680007800F0128F4D1B4
:100B60000BE0FFF7C3FEC11B2148814201D90320DE
:100B7000F8BDE0680007800FF3D11B480168C90782
:100B8000C90FB1420DD901684908490031430160DC
:100B9000006800E003E0C007C00FB04201D00120B0
:100BA000F8BD2878400706D5E06807210902884388
:100BB000E9680843E0602878000707D5E068072166
:100BC000C90288432969C9000843E06000F016F8AB
:100BD000E168084A0906090F515CC84006490860E7
:100BE0000020FFF7A5FEF8BD0020024000100240E3
:100BF00088130000B41A00083C00002010B5184A01
:100C0000D1680C20084004280BD0082810D00C28EC
:100C100010D050680004410F0120C003491C8840D7
:100C200010BD1068C00601D50E4810BD0E4810BD9D
:100C30000E4810BD88020E4B000F185C0902D368E5
:100C4000890F491CDB0301D5084A05E01268D2066A
:100C500001D5044A00E0044A5043FFF767FA10BD8B
:100C60000010024000093D000024F40000127A0048
:100C7000C41A0008FEB505007ED0FE4CE7680C20C3
:100C8000E66807400120000406402878C00747D0E6
:100C9000082F05D00C2F0AD101200004864206D16E
:100CA000206880033CD568680028E5D038E0012042
:100CB00069680004814203D121680143216011E089
:100CC000052301221B0492049942216802D1114399
:100CD0002160F1E781432160216801400091206893
:100CE00090432060686800280DD0FFF7FFFD00905A
:100CF00005E0FFF7FBFD0099401A64287ED82068C4
:100D00008003F6D50CE0FFF7F1FD009005E0FFF75A
:100D1000EDFD0099401A6428F0D820688003F6D4CD
:100D2000287880075CD5E868810604D522682021F0
:100D30000A43226088430923042F0DD00C2F01D1D0
:100D4000002E09D000283BD021689943014321603F
:100D5000FFF7CCFD064627E02168490701D50028AA
:100D60008AD061681F22120291432A69120211433C
:100D700061602168994300E08EE101432160FFF743
:100D80003DFFE16809060A0FBB49895CC840BB49C1
:100D900008600020FFF7CCFD002873D120E0FFF7AA
:100DA000A5FD801B0228A9D820684007F7D56068F8
:100DB0001F210902884329690902084360600FE086
:100DC0002068400840002060FFF790FD064604E0E0
:100DD000FFF78CFD801B022890D820684007F7D4CD
:100DE0002878C00660D5002F0DD0A86900284AD009
:100DF0002068FF2101310843206000E0C4E0FFF7D4
:100E000075FD06462CE02068800502D5A8690028FB
:100E1000A6D06068072149038843296A08436060B7
:100E20006068297F0002000A090608436060286A9A
:100E3000410B0120C003491C8840E16809060A0FE4
:100E40008D49895CC8408D4908600020FFF770FD1E
:100E5000002817D128E0FFF749FD801B0228A2D8FF
:100E600020688005F7D56068072149038843296A0F
:100E7000084360606068297F0002000A0906084391
:100E8000606011E0E1E02168FF20013081432160D2
:100E9000FFF72CFD064604E0FFF728FD801B022823
:100EA00072D820688005F7D42878754E000724D5BD
:100EB00068690028306910D0012108433061FFF7CC
:100EC00015FD009005E0FFF711FD0099401A02287A
:100ED0005AD830698007F6D50FE0400840003061ED
:100EE000FFF704FD009005E0FFF700FD0099401AB0
:100EF000022849D830698007F6D42878400765D59C
:100F000000200290A06BC00006D4A06B012109074D
:100F10000843A063012002905A480168C90511D412
:100F20000168821511430160FFF7E0FC009005E0C5
:100F3000FFF7DCFC0099401A642825D85148006866
:100F4000C005F5D5FF20AA680130824203D131697E
:100F50000143316111E001218902002A07D00523F4
:100F60001B029A4203D132690A433261EFE73269C8
:100F700082433261306988433061A86800280FD00D
:100F8000FFF7B4FC009007E05EE0FFF7AFFC0099CC
:100F9000411A3D48814257D830698005F5D50DE0AA
:100FA000FFF7A4FC009006E0FFF7A0FC0099411AAF
:100FB0003548814248D830698005F5D40298002828
:100FC00004D0A16B012000078143A163686A002857
:100FD00064D00C2F3ED0012636060228206805D0AA
:100FE000B0432060FFF782FC05462FE0B04320604D
:100FF000FFF77CFC074604E0FFF778FCC01B0228E3
:1010000022D820688001F7D4E96AA86AE268084318
:10101000296BFD231B049A4311430843E0602068B9
:1010200030432060FFF762FC054604E0FFF75EFCFA
:10103000401B022808D820688001F7D52EE0FFF772
:1010400055FC401B022801D90320FEBD2068800109
:10105000F5D423E00128F8D0E06801210904AA6A48
:101060000140914218D10F218904EA6A014091425E
:1010700012D10BE000100240B41A00083C0000201E
:1010800040100240007000408813000003218905D1
:101090000840296B884201D00120FEBD0020FEBD22
:1010A000094910B5401E884201D9012010BD074CE6
:1010B00060610321081F00F051FA0020A0610720A1
:1010C0002061002010BD0000FFFFFF0000E000E0F5
:1010D000F0B502462032137E012B15D0012717767A
:1010E0000223537605686C68AB687026B4430E68BB
:1010F000496826438024A34319436E6000688160D9
:10110000577600201076F0BD0220F0BD70B50400C7
:1011100005D025462035687E002802D006E0012053
:1011200070BD00202876204600F00AF8022068767C
:10113000211D206800F098FA01206876002070BD1B
:10114000006801218907884204D10348816B01228C
:10115000114381637047000000100240F8B5054656
:1011600004462035287E012817D001262E7602203D
:101170006876226890687727FF23B8431B0298435C
:1011800090600A68502A31D00EDC202A4BD006DC51
:10119000002A48D0102A3AD145E00220F8BD302A72
:1011A00041D0402A33D136E0602A27D0702A12D0AD
:1011B00001200003121A2AD0824228D1CB684A6843
:1011C0008968206800F081FA206881680122920312
:1011D000114381601BE0CB684A688968206800F091
:1011E00074FA216888683843886010E0CA684968E2
:1011F000206800F0E4FA5021206806E0CA684968D7
:10120000206800F0EDFA6021206800F069FA6E763F
:1012100000202876F8BDCA684968206800F0CFFA37
:1012200040212068F1E711462068EEE710B586B04E
:10123000044614216846FEF7A8FF012120688907AB
:10124000884213D10A48C16A01221143C162C06AAF
:10125000022100911040059000200290039001911E
:101260000491052069460007FFF786FA06B010BD15
:1012700000100240F8B5064604462036307E0D4682
:1012800001280DD001203076022070760427002A34
:1012900008D0042A16D0082A2AD00C2A4DD137E0CB
:1012A0000220F8BD206800F023FA20688169082236
:1012B0001143816120688169B94381612068816936
:1012C000EA6812E0206800F02BFA206882690121A8
:1012D000C9020A4382612068816901229202914316
:1012E000816120688169EA6812021143816124E00A
:1012F000206800F02EFA2068C26908210A43C26102
:101300002068C169B943C1612068C169EA6812E017
:10131000206800F039FA2068C1690122D202114325
:10132000C1612068C269012189028A43C2612068C3
:10133000C169EA6812021143C16101207076002080
:101340003076F8BD70B5040005D025462035687E9E
:10135000002802D006E0012070BD0020287620463B
:1013600000F00AF802206876211D206800F07CF960
:1013700001206876002070BD704710B504460068F3
:10138000012200F095F9206881684907490F062974
:1013900003D00168012211430160002010BD00004C
:1013A00010B504460068002200F082F92068016A46
:1013B000054A114203D10168490849000160012032
:1013C00020346076002010BD11110000FEE70000FF
:1013D0001CB5002118480091164A019102600322B1
:1013E000C16392074260816001230322036182632B
:1013F0000246C16020321370FF235170C233436232
:101400008162117301638161042241634261C161A0
:10141000FEF7ECFF09480090C001019069460648BC
:10142000FEF796FF0648009069460348FEF790FFD6
:101430001CBD0000002401406800002020000014B2
:101440008000001CF0B587B014216846FEF79DFEB1
:101450002048C16A01252943C162C16A294005911A
:10146000C26A02210A43C262C06A1B4E084005904C
:10147000002242213046FFF732FA1848052700249F
:101480003F0701906946009502943846FFF774F9CA
:1014900010206A4631C269463846FFF76DF942208E
:1014A000009002946946019503943046FFF764F971
:1014B000680200900194694602943046FFF75CF997
:1014C000002211460520FFF76BFA0520FFF75EFAB0
:1014D00007B0F0BD001002400004005000001110E1
:1014E00010B58AB0002404940594069407940894D7
:1014F00001211848099400940194029489070394E7
:1015000001600121846041607D210461C900446162
:10151000C160FFF7FBFD01200003049004A90D4802
:10152000FFF71CFE0B48FFF70DFF089408A90948B8
:101530000994FFF7CDFD60200090019402940422ED
:10154000694603940348FFF795FE0248FFF76EFED5
:101550000AB010BDC4000020704700008307FF22BE
:10156000DB0E9A408907090E994000280BDA000724
:10157000000F0838830808489B001818C369934374
:101580000B43C3617047830804489B001B1818680D
:10159000904308431860704700ED00E000E400E06D
:1015A0007047704710B504494888002801D0401E94
:1015B0004880FFF7A1F910BD3400002010B592B0AB
:1015C00034216846FEF7E1FD14210DA8FEF7DDFD8C
:1015D0000F4801680322D2029143C21489180160A6
:1015E00010200090012006900024800308900794AA
:1015F00009946846FFF73EFB0F200D900E940F9460
:101600001094002111940DA8FFF742FA12B010BDFA
:101610000070004010480168821511430160C168E4
:101620000E4A1140C16001680D4A11400160816895
:1016300049084900816001680122920491430160D8
:10164000C168FD2212049143C16000210161054976
:10165000C003886070470000001002400C40FF8803
:10166000F6FFF6FE00ED00E030B5026801239B07AF
:101670000E4C984201D0A04203D17025AA434D6878
:101680002A43984201D0A04204D103231B029A436B
:10169000CB681A4380239A430B691A4302608A6815
:1016A000C262096881620121416130BD00080140C8
:1016B00010B5CB06DB0E0121046A99408C4304620D
:1016C000016A9A401143016210BD30B58468FF255C
:1016D0002D021B021343AC430B432343836030BDF5
:1016E000826870239A430A4307210A438260704745
:1016F00030B5026A520852000262026A4568836984
:101700007024A3439C080B68A40023430224A24333
:101710008C6845601443836149684163046230BD4D
:1017200030B5026A10239A430262036A45688269EF
:1017300073242402A2430C682402144320229343FE
:101740008A68456012011A438461496881630262B4
:1017500030BD30B5026AFF2301339A430262026A48
:101760004568C3697024A3439C080B68A400234305
:1017700001246402A2438C68456024021443C361BF
:101780004968C163046230BD30B5026A01231B039E
:101790009A430262036A4568C26973242402A24321
:1017A0000C68240214430122520393438A68456063
:1017B00012031A43C46149680164026230BD30B546
:1017C000036A046A6408640004628469F025AC4317
:1017D000120122430A24A3430B438261036230BDFA
:1017E00030B5036A1024A34303628469036A0F259A
:1017F0002D031203AC432243A024A3430901194340
:101800008261016230BD02E008C8121F08C1002ACF
:10181000FAD170477047002001E001C1121F002A71
:10182000FBD1704718229D499D48FEF795FCFFF7B4
:101830006BF8FFF7C3FEFFF705FEFFF751FEFFF75A
:10184000C7FD964D00241C3D6C819548AC810088F5
:10185000288093486021103812C004210460416040
:101860000A4601466C8008397C30FFF703FDFFF71C
:10187000B1F8FFF7A7F86C61AC800121EC80490258
:101880008848FFF727F8012800D00020844E68829E
:101890001836E88900282BD0288A834C401E80B255
:1018A00028822188002901D00021E98100280CD15B
:1018B00001210846FFF7D2F80020E8810246022104
:1018C0007848FFF70CF8012020802821288AFEF7AD
:1018D0002DFC0029DDD1734C02212046FEF7FAFFD2
:1018E000012803D0012202212046C6E00022FAE7A7
:1018F000012149026B48FEF7EDFF012800D00020CE
:10190000698A884201D0FFF74FF8002240216548DC
:10191000FEF7E5FF0024202701E0012C0FD03168FD
:10192000802088625E481830FEF7CCFE5C487D213E
:10193000C9001830FEF766FE002803D008E03068C2
:101940008762EFE75948002C15D0FEF74BFDA861E0
:10195000641C022CE1DB5548FEF7E2FE0122402127
:101960005048FEF7BCFF524968692C46884207D9A7
:10197000012020810DE0FEF735FD01246861DEE7DE
:101980004B4AEC3A904201D9022001E044480088D9
:101990002881454F20893988814200D93880608963
:1019A000022807D06188388881420FD1E188002958
:1019B00006D050E00020608138800120608005E082
:1019C0004100374808188089002847D0388860804F
:1019D000364804215C30FFF7E3FC38886189014315
:1019E0000ED02F4A400081188889002817D0A3887C
:1019F0002046002B18D000211346103B596018E0F8
:101A00002B4AA169AD3A2046914205D20121C181FC
:101A1000FF21F53121821BE00120388018E02048A9
:101A200049881038416007E04B881D4910394B60E8
:101A300001218180D18AE1801949042210390846A8
:101A40008430FFF717FC194804215C30FFF795FC40
:101A5000E088002802D0E088401EE08005200121B7
:101A60000007FEF737FF002802D16089002807D061
:101A70000020A081012202210A48FEF730FF08E77A
:101A8000A0890121401C80B24902A0818842F1D97D
:101A900001206081608000203880EBE71C0000207E
:101AA0005000002000040050340000206800002096
:101AB000390B0000000000000000000001020304D8
:101AC00006070809030406080C101820300000005F
:101AD000F01A00080000002040000000061800086E
:101AE000301B000840000020C00400001618000849
:101AF00000000000000000000000000000000000E6
:101B000000000000000000000000000003000000D2
:101B1000C800F401E803000000000000000000001D
:101B20000000000000000000000000000000200095
:04000005080000C12E
:00000001FF
