:020000040800F2
:10000000C8050020D5000008211A0008651800085E
:1000100000000000000000000000000000000000E0
:100020000000000000000000000000006B1A000843
:100030000000000000000000691A00086D1A0008A6
:100040000501000805010008050100080501000878
:1000500005010008A50300080501000805010008C6
:100060000000000005010008050100080501000866
:100070000501000805010008000000000501000856
:100080000000000000000000000000000000000070
:100090000501000800000000000000000501000844
:1000A0000000000005010008000000000000000042
:1000B0000501000805010008000000000000000024
:1000C0000348854600F0BEF800480047AD20000810
:1000D000C80500200C4880F308880C480168090E08
:1000E0000B4A914205D10B480B4901600B480C4962
:1000F00001600C4880470C480047FEE7FEE7FEE73A
:10010000FEE7FEE7FEE70000C8050020040000004F
:100110001F000000341002400100000000000140F8
:1001200000000000F11A0008C100000830B50B46BD
:10013000014600202022012409E00D46D5409D42C1
:1001400005D31D469540491B254695404019154647
:10015000521E002DF1DC30BDF0B51FB40646002064
:1001600082B005464024019100901BE0019922468F
:100170000F46304600F054F8049A059B801A9941C6
:1001800010D310461946224600F03AF8361A8F412D
:100190000197224601200021009F00F031F8381815
:1001A0004D4100902046641E0028DFDC019B009832
:1001B0002946324607B0F0BD03460B439B0703D0E8
:1001C00009E008C9121F08C0042AFAD203E00B781C
:1001D0000370401C491C521EF9D27047D2B201E094
:1001E0000270401C491EFBD270470022F6E710B592
:1001F00013460A4604461946FFF7F0FF204610BD95
:1002000010B5202A04DB0146203A9140002010BDA1
:10021000914020239C1A0346E3401943904010BDAF
:1002200010B5202A04DB0846203AD040002110BD3A
:100230000B46D340D0402024A21A914008431946CF
:1002400010BD0000064C0125064E05E0E36807CC12
:100250002B430C3C98471034B442F7D3FFF734FFDC
:10026000AC230008CC23000870B504460068816800
:10027000490720D5816810264907002905DA8168D9
:10028000890702D481683143816000F0A5FB0546EF
:100290000DE000F0A1FB401B0A2808D9606D304337
:1002A0006065A06D01210843A065084670BD206807
:1002B00080684007EDD4002070BD000038B50446CA
:1002C000064805490068FFF731FF604300E0401E23
:1002D00000900028FBD138BD40420F008400002070
:1002E000F8B50446006881688907890F012925D17E
:1002F0000168C90722D08168052211401025012616
:1003000001290FD1816802221143816021680320F5
:10031000086000F061FB07460CE000F05DFBC01BCD
:100320000A2807D9606D28436065A06D3043A06539
:100330000120F8BD20688068C007EED10020F8BD1C
:10034000F8B50446006881688907890F012902D140
:100350000168C90722D18168114A10261140012580
:1003600000290ED18168294381600120FFF7A6FF93
:1003700000F032FB07460CE000F02EFBC01B0A2801
:1003800007D9606D30436065A06D2843A0650120EA
:10039000F8BD20680068C043C007EDD10020F8BD5B
:1003A0001700008010B5012000F050FA0D48418878
:1003B000002915D10C4A018813880C4A994206D2AB
:1003C0000B4B1B88994202D21388002B04D00021CA
:1003D00001800221118001E0491C018064214180DB
:1003E00010BD00007C000020020000200C00002056
:1003F0000A000020F8B506460D464036317C01293A
:100400000DD00121317401688A68520709D5416D08
:10041000202211434165002030740120F8BD0220E4
:10042000F8BD174B6A68D80547109A42154C8A6A7E
:100430002B6812D05B035B0B1A438A62296849035D
:1004400005D5A1680143A1600A20FFF737FF28689E
:10045000800312D5A06838430EE05B035B0B9A4320
:100460008A622968490302D5A1688143A16028688E
:10047000800302D5A068B843A06000203074F8BDA6
:1004800001100000002701400068006C7047000068
:1004900070B5040006D0606D264600254036002861
:1004A00002D006E0012070BDA5653574204600F03D
:1004B000D3F8606DC00603D421688868400705D56D
:1004C000606D1021084360653574EBE7606DFF22B5
:1004D0000132904302221043606588688207920FC0
:1004E0005B48012A02D10A68D2072BD10323626834
:1004F0009B079A4205D05B429A4202D05B009A4227
:1005000009D10A69920092080A6121680A69636840
:100510001A430A610CE00A69920092080A61816834
:100520000F22920491438160816862681143816067
:100530002168CA6818239A43CA602168CA68A368F8
:100540001A43CA6081680122520691438160816822
:10055000A28E52061143816020688168C90004D4CC
:10056000816801221207114381602068C168394AFD
:100570001140C1602069E168022825D000200143B4
:10058000204620300278037B52035B001A4311435C
:10059000226B1143A26992031143E269D203114312
:1005A0002268D3681943D160616A0A46FF3AC23AA9
:1005B00005D0A26A11432268D3681943D1604278FA
:1005C0000121012A02D00BE00420D8E7007800289E
:1005D00023D0606D202210436065A06D0843A065A4
:1005E000E06B012820681FD00169C90703D00169A9
:1005F00049084900016120684169C908C900416191
:1006000020684169A26B11434161A565606D800856
:100610008000401C6065002070BD2068C268012316
:100620001B041A43C260DBE70269FF239B009A4365
:10063000026120680269236CA66C1A43636C334321
:100640001A430261206802690A430261D3E700008D
:10065000002701401902FEFF10B586B004461421A0
:100660006846FFF7C2FD0E492068884216D10D4842
:10067000416B421511434163C16A01221143C162BA
:10068000C06A694610400590A020009003200190A8
:10069000002002900520000700F0E4F806B010BD2D
:1006A0000024014000100240F8B504464069254688
:1006B00040350E4608280BD02068C068C00709D016
:1006C000606D202108436065002028740120F8BD7A
:1006D000082700E00C2700F07FF9009011E0701C63
:1006E0000FD0002E05D000F077F90099401AB042E3
:1006F00007D9606D04210843606500202874032039
:10070000F8BD206800683842E9D0606D01214902D7
:10071000084360652068C16809058A0F0C21002A1A
:100720001BD12022125D002A17D10268120714D5AE
:10073000826853070122002B08DB43688B43436028
:10074000606D130298431043606506E0606D2023DE
:1007500018436065A06D1043A065A069002801D111
:10076000206801600020F8BD70B5044621680020B3
:100770008968490721D425464035297C01291CD0A8
:1007800001212974E169012904D02046FFF7D8FD31
:10079000002811D1616D0A4A1140FF220132114334
:1007A00061650021A165297422681C2111602168FE
:1007B0008A6804231A438A6070BD022070BD00005D
:1007C000FEF1FFFF70B5054604464035287C012840
:1007D00007D001262E742046FFF746FD002802D0E0
:1007E0000CE0022070BD2046FFF77AFD002805D1FD
:1007F000616DFF220132914331436165002129740B
:1008000070BD30B5014620314A790023022A04D058
:100810000422C2630B71012030BD026814680E25EA
:10082000AC43146002681468640864001460446C8B
:100830001C22144001221546006CA54045604A71F7
:1008400018460B7130BDC06B7047704710B5044936
:100850004A69024202D04861FFF7F7FF10BD00006D
:1008600000040140F8B50023012498E027469F408A
:100870003A4070D04D68022D01D0122D14D1DD0800
:10088000AD002D1800952D6A5E07AC46F50E0F26BB
:10089000AE46AE406546B543AC460E697546AE40C1
:1008A00065462E43009D2E624D68012D05D0022D18
:1008B00003D0112D01D0122D16D185680326AC4628
:1008C0005D00AE46AE406546B543AC46CE68754663
:1008D000AE4065462E43866046680D79BE43ED0600
:1008E000ED0F9D403543456006685F000325BD4020
:1008F000AE46AE430D79B446AE07B60FBE40654670
:100900002E430660C6687546AE438D68BD403543CC
:10091000C5604D68ED0041D5244D6E6B26436E6376
:100920009E08234DB6007519AC46AD689E07360F7C
:100930000F27B740BD4305273F07B84201D1002725
:100940000BE01C4FB84201D1012706E01A4FB84214
:1009500002D1022701E021E00627B7402F43654678
:10096000AF60164D2E684F689643FF0300D51643BF
:100970002E606E684F689643BF0300D516436E60C5
:10098000AE684F689643FF0200D51643AE60EE682E
:100990004F689643BF0200D51643EE605B1C0A68A1
:1009A0001546DD4000D061E7F8BD000000100240B0
:1009B0000000014000040050000800500004014005
:1009C0000069084000D001207047002A01D08161F1
:1009D000704781627047000001480068704700005E
:1009E0008000002002480168491C01607047000037
:1009F0008000002010B508480024016840221143FF
:100A00000160204600F00AF8002801D0012401E02E
:100A100000F01CF8204610BD0020024070B50546CD
:100A200009487D210024C9000068FFF77FFB00F022
:100A300067FC002801D0012404E000222946501E52
:100A400000F024F8204670BD840000201CB5002072
:100A500001900848416B012211434163816B0204FC
:100A600011438163C0200090684600F023F800F035
:100A700055F81CBD00100240C106C90E0120884077
:100A8000014908607047000000E100E010B500F087
:100A9000C9FF10BD0248016802151143016070478B
:100AA0000070004002480168421511430160704720
:100AB00000700040174A1168E02399430368194306
:100AC000116015494B680122120493434B600B6877
:100AD00093430B60CB689343CB608B6893438B60ED
:100AE0004368DB0302D50B6813430B6043689B0329
:100AF00002D54B6813434B600379DB0702D08B6848
:100B000013438B600079800702D5C8681043C86022
:100B10007047000000700040000401400248016876
:100B20001022114301607047007000400A4B1A68A0
:100B30009208920002431A60084803690422134392
:100B40000361012906D040BF20BF20BF0169914346
:100B50000161704730BFF9E70070004000ED00E030
:100B6000F8B5044600784F4D800672D54D4E0027EB
:100B7000403EB06BC00004D4B06BA9050843B0631D
:100B8000012749480168C90511D40168821511433C
:100B90000160FFF721FF009005E0FFF71DFF0099BE
:100BA000401A642837D840480068C005F5D5326837
:100BB0000321090560680A400140914208D0810381
:100BC000890F032904D13168890301D50120F8BDBB
:100BD0002A69032109040A4022D0084090421FD00C
:100BE000207880061CD528692A6988430121C90418
:100BF0000A432A612A698A432A612861C0050FD500
:100C0000FFF7EAFE009008E0FFF7E6FE0099411AC0
:100C10002648814201D90320F8BD28698005F3D513
:100C200061688803800F032805D13268000582437C
:100C300001400A43326028690322616812041140AE
:100C400008432861002F04D0B16B012000078143C5
:100C5000B1632078800705D5E8680C218843A16836
:100C60000843E8602078400706D5E8680321890238
:100C70008843E1680843E8602078000706D5E86803
:100C800003210903884321690843E86020780006AE
:100C900006D5E86803218904884361690843E86050
:100CA0000020F8BD40100240007000408813000092
:100CB000F8B50E4605007DD053480068C007C00F48
:100CC000B0420AD2504801684908490031430160E6
:100CD0000068C007C00FB04271D128784B4C800724
:100CE00005D5E068F0218843A9680843E0602878CA
:100CF000C00752D06868022817D0032818D021688E
:100D0000012818D08905002959DAE1688908890085
:100D10000143E160FFF760FE69680746022912D0CF
:100D200003291CD0012926D033E021688903EAE792
:100D300021688901E7E74907E5E7FFF74DFEC11B99
:100D40003348814223D8E0680007800F0228F4D19D
:100D500023E0FFF741FEC11B2D48814217D8E06810
:100D60000007800F0328F4D117E0FFF735FEC11B01
:100D7000274881420BD8E0680007800F0128F4D192
:100D80000BE0FFF729FEC11B2148814201D9032056
:100D9000F8BDE0680007800FF3D11B480168C90760
:100DA000C90FB1420DD901684908490031430160BA
:100DB000006800E003E0C007C00FB04201D001208E
:100DC000F8BD2878400706D5E06807210902884366
:100DD000E9680843E0602878000707D5E068072144
:100DE000C90288432969C9000843E06000F036F869
:100DF000E168084A0906090F515CC84006490860C5
:100E00000020FFF70BFEF8BD00200240001002405A
:100E10008813000088230008840000200448054946
:100E20000068C968044A4905490F515CC8407047C9
:100E30008400002000100240A12300080448054956
:100E40000068C968044A8904490F515CC84070476A
:100E50008400002000100240A123000810B5184AA9
:100E6000D1680C20084004280BD0082810D00C288A
:100E700010D050680004410F0120C003491C884075
:100E800010BD1068C00601D50E4810BD0E4810BD3B
:100E90000E4810BD88020E4B000F185C0902D36883
:100EA000890F491CDB0301D5084A05E01268D20608
:100EB00001D5044A00E0044A5043FFF737F910BD5A
:100EC0000010024000093D000024F40000127A00E6
:100ED00098230008FEB505007ED0FE4CE7680C2084
:100EE000E66807400120000406402878C00747D084
:100EF000082F05D00C2F0AD101200004864206D10C
:100F0000206880033CD568680028E5D038E00120DF
:100F100069680004814203D121680143216011E026
:100F2000052301221B0492049942216802D1114336
:100F30002160F1E781432160216801400091206830
:100F400090432060686800280DD0FFF745FD0090B1
:100F500005E0FFF741FD0099401A64287ED820681B
:100F60008003F6D50CE0FFF737FD009005E0FFF7B2
:100F700033FD0099401A6428F0D820688003F6D425
:100F8000287880075CD5E868810604D5226820218E
:100F90000A43226088430923042F0DD00C2F01D16E
:100FA000002E09D000283BD02168994301432160DD
:100FB000FFF712FD064627E02168490701D5002802
:100FC0008AD061681F22120291432A6912021143DA
:100FD00061602168994300E08EE101432160FFF7E1
:100FE0003DFFE16809060A0FBB49895CC840BB495F
:100FF00008600020FFF712FD002873D120E0FFF702
:10100000EBFC801B0228A9D820684007F7D5606850
:101010001F210902884329690902084360600FE023
:101020002068400840002060FFF7D6FC064604E038
:10103000FFF7D2FC801B022890D820684007F7D425
:101040002878C00660D5002F0DD0A86900284AD0A6
:101050002068FF2101310843206000E0C4E0FFF771
:10106000BBFC06462CE02068800502D5A869002854
:10107000A6D06068072149038843296A0843606055
:101080006068297F0002000A090608436060286A38
:10109000410B0120C003491C8840E16809060A0F82
:1010A0008D49895CC8408D4908600020FFF7B6FC77
:1010B000002817D128E0FFF78FFC801B0228A2D858
:1010C00020688005F7D56068072149038843296AAD
:1010D000084360606068297F0002000A090608432F
:1010E000606011E0E1E02168FF2001308143216070
:1010F000FFF772FC064604E0FFF76EFC801B022837
:1011000072D820688005F7D42878754E000724D55A
:1011100068690028306910D0012108433061FFF769
:101120005BFC009005E0FFF757FC0099401A02288D
:101130005AD830698007F6D50FE04008400030618A
:10114000FFF74AFC009005E0FFF746FC0099401AC3
:10115000022849D830698007F6D42878400765D539
:1011600000200290A06BC00006D4A06B01210907EB
:101170000843A063012002905A480168C90511D4B0
:101180000168821511430160FFF726FC009005E01D
:10119000FFF722FC0099401A642825D851480068BE
:1011A000C005F5D5FF20AA680130824203D131691C
:1011B0000143316111E001218902002A07D0052392
:1011C0001B029A4203D132690A433261EFE7326966
:1011D00082433261306988433061A86800280FD0AB
:1011E000FFF7FAFB009007E05EE0FFF7F5FB0099E0
:1011F000411A3D48814257D830698005F5D50DE048
:10120000FFF7EAFB009006E0FFF7E6FB0099411AC2
:101210003548814248D830698005F5D402980028C5
:1012200004D0A16B012000078143A163686A0028F4
:1012300064D00C2F3ED0012636060228206805D047
:10124000B0432060FFF7C8FB05462FE0B0432060A5
:10125000FFF7C2FB074604E0FFF7BEFBC01B0228F6
:1012600022D820688001F7D4E96AA86AE2680843B6
:10127000296BFD231B049A4311430843E060206857
:1012800030432060FFF7A8FB054604E0FFF7A4FB0E
:10129000401B022808D820688001F7D52EE0FFF710
:1012A0009BFB401B022801D90320FEBD2068800162
:1012B000F5D423E00128F8D0E06801210904AA6AE6
:1012C0000140914218D10F218904EA6A01409142FC
:1012D00012D10BE000100240882300088400002097
:1012E000401002400070004088130000032189056F
:1012F0000840296B884201D00120FEBD0020FEBDC0
:10130000094910B5401E884201D9012010BD074C83
:1013100060610321081F00F085FB0020A061072009
:101320002061002010BD0000FFFFFF0000E000E092
:10133000F0B502462032137E012B15D00127177617
:101340000223537605686C68AB687026B4430E6858
:10135000496826438024A34319436E600068816076
:10136000577600201076F0BD0220F0BD70B5040065
:1013700005D025462035687E002802D006E00120F1
:1013800070BD00202876204600F00AF8022068761A
:10139000211D206800F0D6FB01206876002070BD7A
:1013A000006801218907884204D10348816B01222A
:1013B000114381637047000000100240F8B50546F4
:1013C00004462035287E012817D001262E760220DB
:1013D0006876226890687727FF23B8431B029843FA
:1013E00090600A68502A31D00EDC202A4BD006DCEF
:1013F000002A48D0102A3AD145E00220F8BD302A10
:1014000041D0402A33D136E0602A27D0702A12D04A
:1014100001200003121A2AD0824228D1CB684A68E0
:101420008968206800F0BFFB206881680122920370
:10143000114381601BE0CB684A688968206800F02E
:10144000B2FB216888683843886010E0CA68496840
:10145000206800F022FC5021206806E0CA68496834
:10146000206800F02BFC6021206800F0A7FB6E765E
:1014700000202876F8BDCA684968206800F00DFC95
:1014800040212068F1E711462068EEE710B586B0EC
:10149000044614216846FEF7A8FE0121206889074A
:1014A000884213D10A48C16A01221143C162C06A4D
:1014B00002210091104005900020029003900191BC
:1014C0000491052069460007FFF7CCF906B010BD6E
:1014D00000100240F8B5064604462036307E0D4620
:1014E00001280DD001203076022070760427002AD2
:1014F00008D0042A16D0082A2AD00C2A4DD137E069
:101500000220F8BD206800F061FB20688169082294
:101510001143816120688169B943816120688169D3
:10152000EA6812E0206800F069FB20688269012106
:10153000C9020A43826120688169012292029143B3
:10154000816120688169EA6812021143816124E0A7
:10155000206800F06CFB2068C26908210A43C26160
:101560002068C169B943C1612068C169EA6812E0B5
:10157000206800F077FB2068C1690122D202114384
:10158000C1612068C269012189028A43C261206861
:10159000C169EA6812021143C1610120707600201E
:1015A0003076F8BD70B5040005D025462035687E3C
:1015B000002802D006E0012070BD002028762046D9
:1015C00000F00AF802206876211D206800F0BAFABF
:1015D00001206876002070BD704710B50446006891
:1015E000012200F0D3FA206881684907490F0629D3
:1015F00003D00168012211430160002010BD0000EA
:1016000010B504460068002200F0C0FA2068016AA4
:10161000054A114203D101684908490001600120CF
:1016200020346076002010BD1111000070B5044612
:1016300000680168FF2221329143016020688168BF
:101640004908490081602068816800254906002911
:1016500011DA8168402291438160E06E00280AD04F
:101660008563E06EFFF7CDF8002804D0E06EFFF749
:10167000EAF820280DD05A20055321680F2008626F
:10168000206881690822114381612020A067002021
:1016900070BD1020E067032070BD10B5040003D0BA
:1016A000606F002802D007E0012010BD00217020EB
:1016B0000155204600F026F8242060672068016864
:1016C000490849000160204600F0A0FB0128ECD049
:1016D000606A002802D0204600F003FB20684168C1
:1016E0000922D20291434160206881682A229143F5
:1016F000816020680168012211430160204600F0EA
:1017000055FB10BD10B586B0044614216846FEF79F
:101710006CFD1149206888421CD11048816B012260
:10172000520411438163C16A01221143C162C06A3C
:10173000694610400590032040020090022001906D
:10174000002002900320039004200490052000074D
:10175000FFF788F806B010BD0044004000100240BA
:10176000FFB50446806F85B017460E46202875D118
:10177000002E0AD0002F08D0A168C001814207D1F5
:101780002069002804D1F00702D0012009B0F0BD83
:10179000204660300290007C01285FD00298012131
:1017A00001740020E0672220A067FFF715F92546A5
:1017B000403504902F836F830121A0680903FF2225
:1017C000884204D12369002B0CD1254A0AE07F23EB
:1017D000002809D001221207904213D12269002A61
:1017E00005D03F22AA8303E02769002FFAD0AB83FC
:1017F000AA8B0192884202D12069002804D0374682
:10180000002602E00022EDE70027D0B20390688BAB
:1018100000281DD008980090002220212046049B1B
:1018200000F0F6FB002801D00320AFE72068002F6E
:10183000406A07D00399084038707F1C688B401EAF
:101840006883E4E7019908403080B61CF6E705E0BC
:101850002020A06702990020087497E7022095E7EE
:10186000FF010000FEE700001CB5002118480091B0
:10187000164A019102600322C163920742608160AF
:1018800001230322036182630246C1602032137088
:10189000FF235170C233436281621173016381611E
:1018A000042241634261C161FEF7F2FD09480090E4
:1018B000C001019069460648FEF79CFD064800906D
:1018C00069460348FEF796FD1CBD00000024014058
:1018D000B0000020200000148000001CF0B587B08C
:1018E00014216846FEF781FC2048C16A012529437E
:1018F000C162C16A29400591C26A02210A43C262DB
:10190000C06A1B4E08400590002242213046FFF776
:101910005CF81848052700243F07019069460095A8
:1019200002943846FEF79EFF10206A4631C269468F
:101930003846FEF797FF42200090029469460195D1
:1019400003943046FEF78EFF6802009001946946CA
:1019500002943046FEF786FF002211460520FFF76D
:1019600095F80520FFF788F807B0F0BD0010024099
:10197000000400500000111010B58AB00024049437
:10198000059406940794089401211848099400943A
:1019900001940294890703940160012184604160ED
:1019A0007D210461C9004461C160FFF7DFFC0120B3
:1019B0000003049004A90D48FFF700FD0B48FFF752
:1019C000F1FD089408A909480994FFF7B1FC6020CB
:1019D0000090019402940422694603940348FFF79F
:1019E00079FD0248FFF752FD0AB010BD0C0100203E
:1019F00010B50A48084901604B21C9014160002126
:101A00008160C16001618161C1610C22016242613A
:101A10004162FFF742FE10BD004400404801002033
:101A2000704700008307FF22DB0E9A408907090EEA
:101A3000994000280BDA0007000F0838830808488F
:101A40009B001818C36993430B43C3617047830815
:101A500004489B001B18186890430843186070479F
:101A600000ED00E000E400E07047704710B5044965
:101A70004888002801D0401E4880FEF7B3FF10BD03
:101A80007C00002010B598B034216846FEF7ADFB0D
:101A900014210DA8FEF7A9FB182112A8FEF7A5FB3B
:101AA000124801680322D2029143C21489180160CE
:101AB00010200090012006900024800308900794D5
:101AC00009946846FFF706FA0F200D900E940F94C4
:101AD0001094002111940DA8FFF7EAF8022012904B
:101AE000149412A8FFF73CF818B010BD0070004025
:101AF00010480168821511430160C1680E4A114007
:101B0000C16001680D4A11400160816849084900BF
:101B1000816001680122920491430160C168FD2245
:101B200012049143C160002101610549C00388602E
:101B300070470000001002400C40FF88F6FFF6FEE0
:101B400000ED00E030B5026801239B070E4C98427F
:101B500001D0A04203D17025AA434D682A43984280
:101B600001D0A04204D103231B029A43CB681A433D
:101B700080239A430B691A4302608A68C26209682B
:101B800081620121416130BD0008014010B5CB06E2
:101B9000DB0E0121046A99408C430462016A9A4079
:101BA0001143016210BD30B58468FF252D021B0270
:101BB0001343AC430B432343836030BD82687023DF
:101BC0009A430A4307210A438260704730B5026A8C
:101BD000520852000262026A456883697024A34376
:101BE0009C080B68A40023430224A2438C68456030
:101BF0001443836149684163046230BD30B5026AB1
:101C000010239A430262036A45688269732424029E
:101C1000A2430C6824021443202293438A6845603F
:101C200012011A43846149688163026230BD30B594
:101C3000026AFF2301339A430262026A4568C3695C
:101C40007024A3439C080B68A4002343012464026E
:101C5000A2438C68456024021443C3614968C16390
:101C6000046230BD30B5026A01231B039A4302624D
:101C7000036A4568C26973242402A2430C682402E3
:101C800014430122520393438A68456012031A43A6
:101C9000C46149680164026230BD30B5036A046AF8
:101CA0006408640004628469F025AC431201224395
:101CB0000A24A3430B438261036230BD30B5036A3B
:101CC0001024A34303628469036A0F252D031203C2
:101CD000AC432243A024A34309011943826101625A
:101CE00030BD10B5818CC90707D001684A6801234F
:101CF0005B049A43836A1A434A60818C890707D53B
:101D000001684A6801231B049A43C36A1A434A6064
:101D1000818C490707D501684A6801239B049A43CF
:101D2000036B1A434A60818C090707D501684A682A
:101D30000123DB039A43436B1A434A60818CC90633
:101D400007D50268916801231B039943836B1943EC
:101D50009160818C890607D501688A6801235B033D
:101D60009A43C36B1A438A60818C490612D5036873
:101D70005A6801210905046C8A4322435A60026CA7
:101D80008A4207D10268516803235B059943436C7B
:101D900019435160818C090607D501684A680123FF
:101DA000DB04806C9A4302434A6010BDF8B50026FC
:101DB0000446C667FEF710FE054620680068124F0D
:101DC000000709D501212B4600224905204600972E
:101DD00000F01EF900280DD12068006840070BD5DF
:101DE00001212B46002289052046009700F010F9BA
:101DF000002801D00320F8BD20206067A067603470
:101E000026740020F8BD0000FFFFFF01F8B504466E
:101E10002669A268E76932436669102000253E43BF
:101E20002368324370491E68704F3E4016431E605F
:101E30002268536803263603B343E668334353608E
:101E40002368A2698B4201D0266A32439E680B2721
:101E50003F02BE4316439E60654E2368654AB34207
:101E60000AD1D2680C26324026D0042A28D0082A6B
:101E700024D00C2A10D10EE08B420DD1D66803225B
:101E80009202164018D001229202B61A18D0B61A41
:101E900014D0964200D10820564A0126403A564FA7
:101EA000F6038B4236D100280CD002280DD004282E
:101EB00012D008281FD11CE00020EDE70220EBE73C
:101EC0000420E9E7FEF7AAFF08E01068C00601D584
:101ED000384605E0494803E0FEF7C0FF002873D00C
:101EE000626851005118814205D81103814202D322
:101EF00003E03046F4E7012566E0010E06025008D3
:101F0000002330185941FEF727F903210902411A2D
:101F10003B4A55E0E169B14232D1030000F0A9F833
:101F200009070A0D06250606062B0600E3E7FEF75D
:101F300075FF1CE0FEF782FF19E010686168C006BB
:101F400002D548082F4A01E02F4A48088018FEF7BA
:101F5000EDF880B201462D4A10399142CBD8511C80
:101F600001400007400F08432CE0FEF777FF61684F
:101F700040004A08EAE76168012248081204E5E7E0
:101F8000030000F076F809070A0D06260606062C5F
:101F90000600B0E7FEF742FF1DE0FEF74FFF1AE034
:101FA00010686168C00602D54808C01902E01348ED
:101FB0004A081018FEF7BAF880B20146134A1039E1
:101FC000914298D82168C860002020666066284643
:101FD000F8BDFEF743FF61684A088018EAE76168C8
:101FE00048088019E6E7000000480040F369FFEF69
:101FF000004400404010024000093D000024F4006D
:10200000FFFC0F0000127A000048E801EFFF00001B
:10201000FFB581B017460E4604460A9D09E0681CCC
:1020200007D0FEF7D9FC0499401AA8420CD8002D1D
:102030000AD02068C1693046884318D00020B842D1
:10204000EDD0002005B0F0BD20680168FF22A1326C
:10205000914301602068816849084900816020201F
:102060006067A0670020603420740320EAE7012045
:10207000E5E730B47446641E2578641CAB4200D298
:102080001D46635D5B00E31830BC184702E008C8DA
:10209000121F08C1002AFAD170477047002001E0E2
:1020A00001C1121F002AFBD1704700001822AF495E
:1020B000AF48FEF781F8FEF79DFCFFF7E3FCFFF762
:1020C0000DFCFFF759FCFFF7CFFBFFF791FCA74D85
:1020D0000024343DAC81A648EC8100886880A44887
:1020E0006021103812C00421046041600A46014694
:1020F000AC8008397C30FFF7EDF9FEF7D3FCFEF732
:10210000C9FC6C619A4EEC802C8118362AE0984804
:10211000B030FFF78BFA9549954864230122343992
:10212000B030FFF71DFB00281CD1904834380078F0
:10213000312806D0322808D033280AD0342811D1CB
:102140000AE08A491822183909E08849182218310A
:1021500005E01822854902E084491822303184487C
:10216000FEF72AF8834C012149022046FEF728FC9D
:102170000128CCD0288A00282BD0688A7E4F401EA8
:1021800080B268823988002902D000202882E9E7DD
:1021900000280CD101210846FEF7C8FC0020288247
:1021A000024602212046FEF710FC0120388028213B
:1021B000688AFDF7BBFF0029D4D102212046FEF733
:1021C000FFFB012803D0012202212046BDE00022AE
:1021D000FAE7002240216748FEF7F7FB002420279A
:1021E00001E0012C0FD031688020886260481830EF
:1021F000FEF7BAFA5E487D21C9001830FEF754FA9E
:10220000002803D008E030688762EFE75B48002CC5
:1022100015D0FEF739F9A861641C022CE1DB5748A0
:10222000FEF7D0FA012240215248FEF7CEFB544976
:1022300068692C46884207D9012060810DE0FEF7CD
:1022400023F901246861DEE74D49EC39884201D960
:10225000022101E0464801886181474F6089398841
:10226000814200D93880A089022807D0A188388807
:1022700081420FD12189002906D054E00020A0819D
:1022800038800120A08005E0410039480818808985
:1022900000284BD03888A080384804215C30FFF7F4
:1022A000AFF93888A289014610430ED03048490062
:1022B0000A18918900291AD0E3882146002B1BD0E7
:1022C00000220346103B5A601BE02E4AA0692146BB
:1022D000904205D201200882FF20F53060821FE085
:1022E00001210846FEF722FC0120388018E0204832
:1022F00051881038416007E053881D4A103A5360F6
:102300000122CA80C08A2081194904221039084656
:102310008430FFF7DFF8194804215C30FFF75DF9DE
:102320002089002802D02089401E2081052001211B
:102330000007FEF745FB002802D1A089002807D03E
:102340000020E081012202210A48FEF73EFB09E756
:10235000E0890121401C80B24902E0818842F1D924
:102360000120A081A08000213980EBE7340000200B
:1023700098000020000400507C000020B0000020E5
:10238000390B0000CA080000000000000000000037
:102390000102030406070809030406080C101820AC
:1023A000300000000001020304000000CC230008FC
:1023B00000000020880000008C2000085424000841
:1023C00088000020400500009C200008000000005C
:1023D00000000000000000000000000000000000FD
:1023E00000000000000000000400000003000500E1
:1023F0000A000A00000000000000000001001400B4
:1024000003000000C800F401E80300000000000021
:10241000000000000000000004000000C800F401FB
:10242000E803F401000000000000000001000800C3
:1024300003000000C800E8030000000000000000E6
:102440000000000000000800000000000000000084
:042450000000200068
:04000005080000C12E
:00000001FF
